:1000000012C02BC02AC029C0A6C227C026C025C046
:1000100024C0A2C122C0A9C420C0C9C41AC31DC023
:10002000C0C21BC01AC011241FBECFE5D4E0DEBF82
:10003000CDBF10E0A0E6B0E0E8E7F1E102C0059036
:100040000D92A237B107D9F712E0A2E7B0E001C0E4
:100050001D92A33FB107E1F762C0D2CF8AB18F737F
:100060008AB9439883E083BF82E08EBD85BD81E07D
:1000700080938D0109D4089594D310928D0188B393
:100080008D7388BB82E083BF8EBD87E085BD439AB8
:1000900080EC8AB980E08CD70895CF93DF931092DB
:1000A000720040918F0150919001C8E0D4E8A0E027
:1000B000682F772761707070FA01E627F7279A0199
:1000C00036952795A901E0FF03C02C273D27A901FC
:1000D00086959A2F9F5FA92F983050F390937200C6
:1000E0003093900120938F01F0937600E093750098
:1000F0007093740060937300DF91CF91089591E045
:100100009093F102A895809584BD8091F102882397
:1001100029F012D48091F1028823D9F70895CFE510
:10012000D4E0DEBFCDBF84D2C4D36BD418BA8FE382
:1001300087BB12BA84E081BB10BE88E488B982E034
:1001400083BF8EBD87E085BD81E489BF88E181BD25
:100150008FE081BD7894A89510927A001092790072
:10016000929A87E1CCDF929882E3C9DFA8958091CB
:10017000790090917A00019690937A0080937900AB
:10018000883C910568F38AEFBADF8AEFB8DF8AEF1F
:10019000B6DF8AEFB4DF8AEFB2DF48D45FDF809149
:1001A0008C01882309F49EC0833509F4BFC08435CF
:1001B00009F4BAC061DF10928C011092780010929D
:1001C00077000EC0833291F1809177009091780092
:1001D000019690937800809377008C539F4098F617
:1001E00080E78DDF80918B01882361F080918A0107
:1001F000E82FFF27E657FF4F80818A33F1F01092F6
:100200008B01439A2091EE0280917B002817E1F246
:1002100020937B009091ED028AE0989FC001112409
:10022000820F805180937C00853061F68EEF9FE7CE
:100230009093780080937700C7CF81818E34F9F650
:1002400082818433E1F683818435C9F684818835DF
:10025000B1F68581893499F686818D3281F6878160
:10026000813369F68085813351F68185803239F694
:1002700082858A3321F6838580938C0184858B3730
:1002800089F48AEF3CDF8AEF3ADF8AEF38DF8AEFC2
:1002900036DF8AEF34DFE2DE60918A018AE890E09F
:1002A00009D6EADE80918C018035B9F18235E1F022
:1002B0008C3409F0A4CF10927A0010927900929AAF
:1002C00087E11DDF929882E31ADF80917900909197
:1002D0007A00019690937A0080937900883C91058A
:1002E00070F38DCF40D566CF10927A0010927900CE
:1002F000929A80E204DF929882E301DF8091790094
:1003000090917A00019690937A0080937900883CCE
:10031000910570F380918C01CBCF8EEF9FE7909386
:100320007800809377006BCF69D544CF80E390E06D
:100330008CD280918C013BCF91E09093F202A895F2
:10034000809582BF8091F202882329F0F5D28091B6
:10035000F2028823D9F708951F920F920FB60F92D9
:1003600011242F933F934F935F936F937F938F93BA
:100370009F93AF93BF93EF93FF9320918D0122231F
:1003800021F01092F20212BED5C085E482BF8091A6
:10039000910190919201009709F45FC001979093A9
:1003A00092018093910181E08093E80230918E0167
:1003B000332309F058C090917D009F5F80917E00AB
:1003C000981709F494C090937D0020917F002E37F8
:1003D00009F462C080918000883009F0ABC0909130
:1003E0008200992309F467C080918400882309F072
:1003F00064C0332740918F0150919001842F8095E4
:1004000099272817390709F48BC010928000809132
:100410007F0043DE80918B01882361F4809183000B
:10042000E82FFF27E657FF4F90917F0090838F5F63
:100430008093830090918300E92FFF27E657FF4FB9
:1004400082913196803F09F075C032978081833068
:1004500009F070C0909382006DC02093E80288B3C9
:100460008E7388BB67C080918100853009F455C0C8
:10047000809180008F5F8093800020917F0026957F
:1004800020937F0010928E011092810010927D00C7
:100490008CE080937E009BCF8FEF9FEF9093900135
:1004A00080938F011092800010928300109282003E
:1004B000109284003FC080918400882309F4A5CF66
:1004C00080918500281719F0109284009ECF909398
:1004D0008A0180918300825080938B01E82FFF274F
:1004E000E657FF4F11824398109284008ECF80917F
:1004F00081008F5F80938100809180008F5F809367
:10050000800020917F002695206820937F00309303
:100510007D0088E080937E005ACF20917F00B2CF8B
:10052000C09A852F992780958093850081E08093DC
:1005300084006BCFFF91EF91BF91AF919F918F910D
:100540007F916F915F914F913F912F910F900FBECF
:100550000F901F9018951F920F920FB60F921124B3
:100560008F93EF93FF9380918D01882379F0809191
:1005700086008F5F8F7080938600E82FFF27E05AF8
:10058000FF4F808188BB8091F00202C08093F1020E
:1005900084BDFF91EF918F910F900FBE0F901F9030
:1005A00018951F920F920FB60F9211242F933F931D
:1005B0008F9380918B01882399F52CB53DB53093AD
:1005C00088002093870082E02F31380750F01DBC4F
:1005D0001CBC80918900813D89F087EA8093890065
:1005E0001FC025363105E0F01DBC1CBC8091890080
:1005F000873A69F081ED8093890012C081E0809391
:100600008E01309392012093910187EAE7CF81E038
:1006100080938E01309392012093910181EDEBCF75
:100620008F913F912F910F900FBE0F901F901895B3
:1006300080EE87B98FEE86B985E0809393010895A7
:10064000E82FFF27EE0FFF1FEC56FE4F80819181B0
:1006500008951F920F920FB60F9211242F933F937C
:100660008F939F93EF93FF93309170003F5F363EDF
:1006700029F030937000323E39F404C030EE3093EC
:10068000700002C01092930120919301E22FFF2786
:10069000EE0FFF1FEC56FE4F85B1992780839183A3
:1006A0002F5F2093930137B9FF91EF919F918F9125
:1006B0003F912F910F900FBE0F901F901895209192
:1006C000AB013091AC01822793279093A1018093D5
:1006D000A0013695279580FF04C088E094E828277C
:1006E00039273093AC012093AB0108950895CF933F
:1006F000C82F8093A3011092A201992787FD90959E
:10070000817090709093A5018093A401CE37D9F4A5
:100710001092A601892BF1F41092A6018091F002AB
:10072000873A59F187EA8093F0022BC08091A301A8
:10073000992787FD9095817090709093A501809383
:10074000A401CE3729F3BBDF8091A4019091A501CC
:10075000892B11F38091A6018F5F8093A6018530CC
:1007600081F48DEBE9DD8091F002873A41F087EA70
:100770008093F0021092A60104C081EDD4CF81EDE8
:10078000F7CF8091A30185958093A3018DEBD4DDF4
:100790008091A2018F5F8093A20188303CF2CF91BB
:1007A00008958091AC0180958093A7018091AB0161
:1007B00080959DDF8091A7019ADF8EE798DF0895ED
:1007C000CF93DF93EC0183E0C83ED80710F0C7EE6B
:1007D000D3E01092A801C436D10548F080E0C45699
:1007E000D0408F5FC436D105D0F78093A8018091A7
:1007F000A801805D7CDF1092A801CA30D10540F0CD
:1008000080E02A978F5FCA30D105D8F78093A8017E
:100810008091A801805D6BDF8C2F805D68DFDF91A8
:10082000CF910895CF93DF93EC018881882351F015
:1008300089915DDF8881882329F0899158DF88813B
:100840008823B1F7DF91CF910895CF93DF93EC0127
:100850004AD48093A9018823A1F08091A90147DFA0
:100860002196CE0140D48093A901882351F0809134
:10087000A9013DDF2196CE0136D48093A9018823BA
:1008800061F7DF91CF9108958FEF9FEF9093AC01C7
:100890008093AB011092AA018EE729DF8091AA0113
:1008A0008F5F8093AA018436B8F38FE190E0CDDFAB
:1008B000089510BC8FEB89B986E880BD88ED8AB9B0
:1008C0000895982F80916F028F5F8036D9F08093C2
:1008D0006F0280916F02E82FFF27E15FFD4F908349
:1008E0005D9B0FC0809170028F5F803671F08093A6
:1008F000700280917002E82FFF27E15FFD4F808139
:100900008CB9089510926F02E4CF10927002F1CF6B
:100910000895CF93DF93EC018881882351F02196CD
:10092000D0DF8881882329F02196CBDF8881882336
:10093000B1F7DF91CF91089590910E0280910D0251
:10094000981771F0892F8F5F803659F080930E02CF
:1009500080910E02E82FFF27E355FE4F808128D3B8
:10096000089510920E02F4CF08951F920F920FB6C1
:100970000F9211248F93EF93FF9380910D028F5F5D
:10098000803619F080930D0202C010920D02809102
:100990000D02E82FFF27E355FE4F8CB18083FF91B6
:1009A000EF918F910F900FBE0F901F9018951F928F
:1009B0000F920FB60F9211248F939F93EF93FF9393
:1009C0009091700280916F02981791F0892F8F5F3C
:1009D000803659F08093700280917002E82FFF27D3
:1009E000E15FFD4F80818CB903C010927002F4CF9B
:1009F000FF91EF919F918F910F900FBE0F901F90DD
:100A0000189580E38093D3028093D2028093D10221
:100A10008093D9028093D8028093D7028093CA0230
:100A20008093C9028EE28093CB0208958F929F92A9
:100A3000AF92BF92CF92DF92EF92FF920F931F93EC
:100A4000CF931092790290E0A1E8B2E0E9EEF2E0F3
:100A500081918D939F5F9630D8F310928702109208
:100A6000790290918702A8E8B2E0E4EBF2E081918C
:100A70008D939F5F9930D8F3109291021092790272
:100A800090919102A2E9B2E0EEEBF2E081918D93B8
:100A90009F5F9A30D8F310929C0210927902909145
:100AA0009C02ADE9B2E0E9ECF2E081918D939F5FA9
:100AB0009730D8F31092A402109279029091A40278
:100AC000A5EAB2E0E1EDF2E081918D939F5F953070
:100AD000D8F31092AA02109279029091AA02ABEA7E
:100AE000B2E0E7EDF2E081918D939F5F9530D8F30E
:100AF0001092B002109279029091B002A1EBB2E094
:100B0000EDEDF2E081918D939F5F9230D8F31092DA
:100B1000B302109279028EE28093A3029091B30205
:100B20009F5FE92FFF27E356FD4F80818E32C1F78B
:100B300090937902109271021092720210927302D5
:100B400010927402E92F992309F447C0E0907502CE
:100B5000F0907602009177021091780203C0D09253
:100B60007902ED2DDE2EDA94ED2DFF27E356FD4FB1
:100B700080819927C097AA2797FDA095BA2FBC011D
:100B8000CD01A8019701B7D29B01AC018091710200
:100B900090917202A0917302B0917402820F931F20
:100BA000A41FB51F8093710290937202A0937302E9
:100BB000B0937402D801C70123E0880F991FAA1FC0
:100BC000BB1F2A95D1F78E0D9F1DA01FB11FE80EE8
:100BD000F91E0A1F1B1FDD2011F6209171023091B2
:100BE00072024091730250917402DA01C901880FB8
:100BF000991FAA1FBB1F820F931FA41FB51F9C0123
:100C0000AD01C4E05695479537952795CA95D1F71C
:100C1000280F391F4A1F5B1FDA01C901F6E0B6959C
:100C2000A79597958795FA95D1F7820F931FA41FE3
:100C3000B51F9C01AD01E7E056954795379527957F
:100C4000EA95D1F7280F391F4A1F5B1FBB27A52F35
:100C5000942F832F820F931FA41FB51F9C01AD01FA
:100C60006AE056954795379527956A95D1F7280FED
:100C7000391F4A1F5B1F2093710230937202409309
:100C800073025093740210927A021092790280EAF1
:100C9000E82E86E8F82E81E0082F112D59016A010F
:100CA0009924892CD601C501AE14BF04C006D10613
:100CB00090F060E09C01AD012E193F09400B510BF3
:100CC0006F5FDA01C9012E153F054007510790F704
:100CD000962E59016A01E82DFF27E052FD4F80E36F
:100CE000980E9082C82DCF5F8C2E9924C801B70131
:100CF0002AE030E040E050E01DD279018A01223044
:100D000031054105510570F690927A02A092710268
:100D1000B0927202C0927302D09274022093750254
:100D2000309376024093770250937802EC2FFF279E
:100D3000E052FD4F80917102805D80838C2F8F5F28
:100D400080937902E82FFF27E052FD4F9082CF91E8
:100D50001F910F91FF90EF90DF90CF90BF90AF90D9
:100D60009F908F90089580E4C2DC81E892E05ADD84
:100D70008AE7BDDC10928F0288E892E053DD8EE4B2
:100D8000B6DC8FE2B4DC10929A0282E992E04ADD8E
:100D900087E5ADDC8FE4ABDC1092AE028BEA92E02B
:100DA00041DD8FE2A4DC1092A80285EA92E03ADDF0
:100DB0008FE29DDC81E49BDC8DE399DC80EE92E0A8
:100DC00031DD80E294DC8091B102813329F480919D
:100DD000B2028F5E8093B2028091B20288DC80E220
:100DE00086DC80E02DDC0796EBDC80E280DC81E0B5
:100DF00027DC880F991F8196E3DC089584E577DC72
:100E000083E275DC80917B02282F33278F5F8093EC
:100E10007B02C901D5DC8CE26ADC81E080937C0234
:100E200080917C020DDCCCDC8CE261DC80917C0268
:100E30008F5F80937C02863098F3819B16C081E39C
:100E400056DC829B16C081E352DC839B16C081E393
:100E50004EDC849B16C081E34ADC859B16C081E38F
:100E600046DC869B16C081E315C080E340DC829996
:100E7000EACF80E33CDC8399EACF80E338DC8499D5
:100E8000EACF80E334DC8599EACF80E330DC8699D1
:100E9000EACF80E32CDC80E32ADC80E328DC8CE2F0
:100EA00026DC80E0CDDB8CDC8CE221DC81E892E08A
:100EB000B9DC08951F93CF93DF93EC01162F1092A6
:100EC0007D028AE314DC8F81869511DC8885869506
:100ED0000EDC898586950BDC8A85869508DC8B85FA
:100EE000803409F44EC0869502DC8C858034C1F1D3
:100EF0008695FDDB8D85869580548D878033D9F16D
:100F00008A3320F18DE2F3DB81E3F1DB8D858A50BA
:100F1000EEDB10927E0280917D028823C1F180E297
:100F2000E6DB80917E028F5F80937E0290917D024E
:100F3000891768F580E2DBDB80917E028F5F80930A
:100F40007E0290917D02891750F321C08DE2CFDBA4
:100F50008D85CDDB80917D028F5F80937D02D9CF1F
:100F600080917D028F5F80937D028D858695805470
:100F70008D87803329F680917D028D5F80937D027D
:100F8000C8CF80917D028F5F80937D02AECF8AE3D0
:100F9000AEDB81E6ACDB83E6AADB8BE6A8DBC10F28
:100FA000D11DCE010D963EDCDF91CF911F910895AA
:100FB000982F882331F489E180937F029093E70290
:100FC0000895843291F08C32E1F080917F02882381
:100FD00089F4892F99278334910541F1843491054F
:100FE000C4F481349105C1F1089510927F021092EA
:100FF000E70208952091E7022230E1F0213069F004
:10100000089580917F028F5F80937F02109280020B
:10101000089583359105F1F00895282F332727305F
:10102000310591F128303105B1F1089581E08093C7
:10103000E7020895282F332724303105D1F02530D9
:10104000310584F421303105C1F12230310509F434
:1010500042C0089583E5EBCF8091E702833581F2AA
:1010600082E0E5CF2730310509F12930310561F102
:10107000089580918002E82FFF27E254FD4F90836E
:101080008F5F80938002089580918002E82FFF2770
:10109000EF52FD4FF4CF80918002E82FFF27E952F5
:1010A000FD4F90838F5F809380020895809180022E
:1010B000E82FFF27E352FD4FE2CF80918002E82F17
:1010C000FF27E751FD4FDBCF80918002E82FFF27FC
:1010D000E753FD4FD4CF80918002E82FFF27EC54D7
:1010E000FD4FCDCF0895E199FECF9FBB8EBBE09A17
:1010F00099278DB30895629FD001739FF001829F5D
:10110000E00DF11D649FE00DF11D929FF00D839F96
:10111000F00D749FF00D659FF00D9927729FB00D33
:10112000E11DF91F639FB00DE11DF91FBD01CF0146
:1011300011240895A1E21A2EAA1BBB1BFD010DC0AC
:10114000AA1FBB1FEE1FFF1FA217B307E407F50777
:1011500020F0A21BB30BE40BF50B661F771F881F53
:10116000991F1A9469F760957095809590959B01E9
:08117000AC01BD01CF0108959F
:101178003A162E1E3E1E2E16062A12220222122A67
:02118800E00085
:00000001FF
