:1000000012C02CC02BC02AC0ABC228C027C026C03B
:1000100025C0A4C123C0A6C421C0C5C42DC31EC011
:10002000CCC21CC01BC011241FBECFE5D4E0DEBF74
:10003000CDBF10E0A0E6B0E0E4E1F1E102C0059040
:100040000D92A237B107D9F712E0A2E7B0E001C0E4
:100050001D92A33FB107E1F76AD05AC8D1CF8AB148
:100060008F738AB9439883E083BF82E08EBD85BDDC
:1000700081E08093790011D40895A6D3109279007D
:1000800088B38D7388BB82E083BF8EBD87E085BD5A
:10009000439A8AB1806C8AB980E05BD70895209139
:1000A0007B0030917C0098E0E8E0F4E801C08695A0
:1000B000482F50E041705070BA016227732736957F
:1000C000279560FF02C02E273F27915081F750935C
:1000D0008A014093890130937C0020937B007093C8
:1000E00088016093870188E080938B01089591E0F7
:1000F0009093F202A895809582BF8091F2028823A6
:1001000029F01AD48091F2028823D9F7089591E05A
:100110009093F102A895809584BD8091F102882387
:1001200029F00AD48091F1028823D9F708950F931A
:100130001F93CF93DF938FD2C5D35AD418BA8FE3CE
:1001400087BB12BA84E081BB10BE88E488B982E024
:1001500083BF8EBD87E085BD81E489BF88E181BD15
:100160008FE081BD7894A8951092900110928F0134
:10017000929A87E1CCDF929882E3C9DFA8958091BB
:100180008F019091900101969093900180938F013F
:10019000883C910568F30EEF1FE7CFEFDFE78AEFAA
:1001A000B6DF8AEFB4DF8AEFB2DF8AEFB0DF8AEF23
:1001B000AEDF33D454DF80918C01882309F444C02E
:1001C000833509F445C0843509F440C056DF1092E8
:1001D0008C01109292011092910180E798DF80913A
:1001E0007200882359F0E0917D00F0E0E258FF4F63
:1001F00080818A33C1F110927200439A8091EE029D
:1002000090918E01891789F080938E018051909191
:10021000ED02990F292F220F220F290F820F8093B1
:100220008D018530D9F08332C9F080919101909190
:100230009201019690939201809391012FE08C336B
:10024000920708F0ACCFC9CF69D5C0CFB3D5BECF28
:1002500080E390E013D380918C01B5CFD0939201CD
:10026000C09391019CCF81818E3429F682818433A1
:1002700011F68381843509F0BECF8481883509F079
:10028000BACF8581893409F0B6CF86818D3209F0E5
:10029000B2CF8781813309F0AECF8085813309F0F9
:1002A000AACF8185803209F0A6CF82858A3309F0F2
:1002B000A2CF838580938C0184858B3789F48AEF64
:1002C00026DF8AEF24DF8AEF22DF8AEF20DF8AEF42
:1002D0001EDFC5DE8EE790E060917D00C4D5CDDEE7
:1002E00080918C018035E1F08235F9F08C3409F091
:1002F00082CF1092900110928F01929A87E107DFCE
:10030000929882E304DF80918F0190919001019691
:100310009093900180938F01883C910570F36BCF8F
:10032000109392010093910166CF10929001109268
:100330008F01929A80E2EBDE929882E3E8DE809170
:100340008F019091900101969093900180938F017D
:10035000883C910570F380918C01C8CF1F920F9259
:100360000FB60F9211240F931F932F933F934F9328
:100370005F936F937F938F939F93AF93BF93EF930D
:10038000FF9380917900882309F068C085E482BFDB
:1003900080917400909175000097C1F41092E8026A
:1003A00088B38E7388BBFF91EF91BF91AF919F91FE
:1003B0008F917F916F915F914F913F912F911F91FD
:1003C0000F910F900FBE0F901F901895019790936B
:1003D00075008093740081E08093E802809173003F
:1003E000882309F03FC0809186018F5F809386014A
:1003F00090918501891709F483C0109184011E37FB
:1004000009F449C080918301883069F680918101A7
:10041000882309F04FC090917F01992309F089C08A
:100420000091720010928301812F39DE002309F4BC
:100430005CC020918001822F90E082589F4FFC0188
:1004400031973081303F09F0AECF0297FC018081B7
:10045000833009F0A8CF20938101A5CF1092F2023A
:1004600012BEA1CF80918201853009F45FC08091D6
:1004700083018F5F809383011091840116951093FF
:1004800084011092730010928201109286018CE018
:1004900080938501B4CF8FEF9FEF90937C00809382
:1004A0007B001092830110928001109281011092C2
:1004B0007F0179CF90917F019923D9F540917B00FD
:1004C00050917C00612F70E09A012095309530703A
:1004D0006217730709F0A4CFC09A852F8095809387
:1004E0007E0181E080937F019BCF20918001E22FEC
:1004F000F0E0E258FF4F10832F5F209380019BCFE5
:10050000809182018F5F80938201809183018F5F50
:1005100080938301109184011695106810938401D3
:100520001092860198E0909385016ECF109184011E
:10053000A8CF90917E01911729F00091720010923E
:100540007F0170CF80937D00009180010250009365
:100550007200E02FF0E0E258FF4F11824398EFCF96
:100560001F920F920FB60F9211248F93EF93FF9368
:1005700080917900882359F41092F10214BCFF9104
:10058000EF918F910F900FBE0F901F901895E091F3
:100590007A00EF5FEF70E0937A00F0E0E05AFF4FEF
:1005A000808188BB8091F00284BDFF91EF918F9193
:1005B0000F900FBE0F901F9018951F920F920FB6BD
:1005C0000F9211242F938F939F9380917200882311
:1005D00099F48CB59DB5909378008093770022E0D4
:1005E0008F31920788F01DBC1CBC20917600213D04
:1005F000F9F087EA809376009F918F912F910F9069
:100600000FBE0F901F90189585369105A8F31DBC5D
:100610001CBC20917600273AB1F081ED80937600E2
:100620009F918F912F910F900FBE0F901F90189553
:1006300021E020937300909375008093740087EA03
:1006400080937600D9CF21E02093730090937500BA
:1006500080937400E2CF80EE87B98FEE86B985E093
:10066000809393010895E82FF0E0EE0FFF1FEC5602
:10067000FE4F8081918108951F920F920FB60F92C5
:1006800011242F938F939F93EF93FF93809170008A
:100690008F5F80937000863EF9F0823EB9F421E0CE
:1006A000E0E0F0E095B1EE0FFF1FEC56FE4F9083B7
:1006B00011822093930187B9FF91EF919F918F91C0
:1006C0002F910F900FBE0F901F90189520919301BE
:1006D000E22FF0E02F5FE6CF80EE80937000209154
:1006E0009301E22FF0E02F5FDDCF2091A201309146
:1006F000A301822793279093A5018093A4013695A7
:1007000027953093A3012093A20180FF08C088E0C1
:1007100094E8822793279093A3018093A2010895E0
:100720000F931F93CF93DF93082F182F8093A90166
:100730001092AA011BC01092A601209739F51092C1
:10074000A6018091F002873AB1F187EA8093F00226
:1007500015951093A9018DEBCADC8091AA018F5FDA
:100760008093AA0188304CF51091A901C12FDD2793
:10077000C7FDD095C170D070D093A801C093A701D8
:100780000E37C9F2CE01B1DF2097C9F28091A601E0
:100790008F5F8093A6018530D9F68DEBA8DC809120
:1007A000F002873A79F087EA8093F0021092A6016E
:1007B0001091A901CDCF81EDC9CFDF91CF911F91CC
:1007C0000F91089581EDF0CF8091A2019091A30146
:1007D00090959093AB018095A3DF8091AB01A0DF52
:1007E0008EE79EDF0895EF92FF92CF93DF93E82E7E
:1007F000E7017E01F92EE70183E0C83ED80710F03B
:10080000C7EED3E01092A101C436D10528F191E0E2
:10081000C456D040892F9F5FC436D105C8F7809356
:10082000A101805D7DDF1092A101CA30D105B0F039
:1008300091E02A97892F9F5FCA30D105D0F7809326
:10084000A101805D6DDF9E01205D822F69DFDF9158
:10085000CF91FF90EF90089580E3E4CF80E3F2CF53
:10086000CF93DF93EC018881882329F0219658DF0C
:1008700089918823E1F7DF91CF910895CF93DF939A
:10088000EC0102C04DDF2196CE013AD48093A00145
:100890008823C1F7DF91CF9108958FEF9FEF909359
:1008A000A3018093A2011092AC018EE739DF809101
:1008B000AC018F5F8093AC018436B8F38FE190E098
:1008C000DDDF089510BC8FEB89B986E880BD88ED27
:1008D0008AB90895E091AE01EF5FE093AE01E03692
:1008E00099F0F0E0E155FE4F80835D9B0CC0E091F4
:1008F000AD01EF5FE093AD01E03659F0F0E0E15576
:10090000FE4F80818CB908951092AE01E0E0F0E0D6
:10091000E9CF1092AD01E0E0F0E0F1CFCF93DF93AB
:10092000EC018881882329F02196D4DF89918823DE
:10093000E1F7DF91CF910895E091700280910F026D
:10094000E81751F0EF5FE0937002E03631F0F0E02D
:10095000E05FFD4F8081FDD2089510927002E0E0CB
:10096000F0E0F6CF1F920F920FB60F9211248F93E3
:10097000EF93FF93E0910F02EF5FE0930F02E036F9
:1009800069F0F0E08CB1E05FFD4F8083FF91EF9163
:100990008F910F900FBE0F901F90189510920F021D
:1009A000E0E0F0E0EFCF1F920F920FB60F9211240C
:1009B0008F93EF93FF93E091AD018091AE01E81723
:1009C00051F0EF5FE093AD01E03669F0F0E0E15502
:1009D000FE4F80818CB9FF91EF918F910F900FBEE8
:1009E0000F901F9018951092AD01E0E0F0E0EFCF6E
:1009F00080E3809394028093930280939202809389
:100A00009A02809399028093980280938B02EBE87C
:100A1000F2E082938EE2828308954F925F926F920A
:100A20007F928F929F92AF92BF92CF92DF92EF927E
:100A3000FF920F931F93CF93DF93E9EEF2E0A2EAC8
:100A4000B2E081918D9382E0EF3EF807D1F71092EA
:100A5000A802E2E7F2E0ABEAB2E081918D9382E096
:100A6000EB37F807D1F71092B402ECE7F2E0A5EB10
:100A7000B2E081918D9382E0E638F807D1F71092C9
:100A8000BF02EAE8F2E0A6EDB2E081918D9382E048
:100A9000E139F807D1F71092DD028091920280933C
:100AA000C602809193028093C70280919402809342
:100AB000C802809195028093C9028091960280932A
:100AC000CA021092CB02809198028093C00280915A
:100AD00099028093C10280919A028093C202809110
:100AE0009B028093C30280919C028093C402109267
:100AF000C502809187028093D302809188028093FF
:100B0000D4021092D5028EE28093DC0211E001C083
:100B1000192F912F9F5FE12FF0E0EA52FD4F808166
:100B20008E32B1F7112309F4F5C0A090E002B09025
:100B3000E102C090E202D090E302662477244301F0
:100B40001150E12FF0E0EA52FD4F608170E06053F8
:100B50007040882777FD8095982FA60195018FD248
:100B6000660E771E881E991EC601B5012AE030E088
:100B700040E050E084D25B016C01112309F7D401FD
:100B8000C301880F991FAA1FBB1F860D971DA81DA3
:100B9000B91D9C01AD01F4E0569547953795279511
:100BA000FA95D1F7280F391F4A1F5B1FDA01C901D7
:100BB000E6E0B695A79597958795EA95D1F7820FC8
:100BC000931FA41FB51F9C01AD0177E05695479573
:100BD000379527957A95D1F7280F391F4A1F5B1F44
:100BE000BB27A52F942F832F820F931FA41FB51F00
:100BF0005C016D012AE0D694C794B794A7942A9516
:100C0000D1F7A80EB91ECA1EDB1EA092E402B09254
:100C1000E502C092E602D092E70255241A2DE09038
:100C2000E5026090E6020091E70260E085E0482E70
:100C300020EA36E841E050E0A216B306C406D50625
:100C400038F1662477244301621A730A840A950AEC
:100C5000A21AB30AC40AD50A61E003C0672F5C0177
:100C60006D01D601C501860D971DA81DB91D762FF2
:100C70007F5F7C018D01E20EF31E041F151FE2163B
:100C8000F3060407150750F71A2DEB2C6C2C0D2DCD
:100C9000E52DF0E0CCECD2E0EC0FFD1F605D608351
:100CA0005394CA01B9012AE030E040E050E006D296
:100CB000451431F0A12EBE2CC62CD02E60E0BCCF46
:100CC0002093E0023093E1024093E2025093E3026A
:100CD0001093E402E092E5026092E6020093E702DC
:100CE0001092DE028A2D805D8D8386E08093DF0284
:100CF0001E82DF91CF911F910F91FF90EF90DF90B7
:100D0000CF90BF90AF909F908F907F906F905F90AB
:100D10004F90089566247724430131CF80E400DDAD
:100D200082EA92E09DDD8AE7FBDC1092B2028BEA58
:100D300092E096DD8EE4F4DC8FE2F2DC1092BD02EC
:100D400085EB92E08DDD87E5EBDC8FE4E9DC10924A
:100D5000C30280EC92E084DD8FE2E2DC1092C902F3
:100D600086EC92E07DDD8FE2DBDC81E4D9DC8DE393
:100D7000D7DC8CEC92E074DD80E2D2DC8091D3028F
:100D8000813391F08091D402CBDC80E2C9DC80E039
:100D90006ADC079628DD80E2C3DC81E064DC880F32
:100DA000991F819620DD08958091D4028F5E8093F3
:100DB000D402EACF84E5B4DC83E2B2DC8091AA02FB
:100DC000982F9F5F9093AA0290E00DDD8CE2A8DC43
:100DD00081E08093A90247DC06DD8CE2A1DC8091F2
:100DE000A9028F5F8093A9028630A8F3819B25C05A
:100DF00081E396DC829B25C081E392DC839B25C046
:100E000081E38EDC849B25C081E38ADC859B25C041
:100E100081E386DC869925C080E382DC80E380DC88
:100E200080E37EDC8CE27CDC80E01DDCDCDC8CE2C0
:100E300077DC82EA92E014DD089580E371DC829928
:100E4000DBCF80E36DDC8399DBCF80E369DC8499C1
:100E5000DBCF80E365DC8599DBCF80E361DC869BBB
:100E6000DBCF81E3DACF1F93CF93DF93EC01162F13
:100E70001092A1028AE354DC8F81869551DC88852B
:100E800086954EDC898586954BDC8A85869548DC7F
:100E90008B85803409F457C0869542DC8C8580347C
:100EA00009F43FC086953CDC8D85869580548D87FE
:100EB000803309F442C08A3350F18DE231DC81E3A2
:100EC0002FDC8D858A502CDC8091A1021092A0022B
:100ED000882359F080E224DC8091A0028F5F809308
:100EE000A0029091A1028917A8F38AE319DC81E698
:100EF00017DC83E615DC8BE613DC812F90E00D9682
:100F00008C0F9D1FADDCDF91CF911F9108958DE275
:100F100007DC8D8505DC8091A1028F5F8093A102A3
:100F2000D5CF8091A1028F5F8093A1028D85869598
:100F300080548D87803309F0BECF8091A1028D5FF0
:100F40008093A102C3CF8091A1028F5F8093A10201
:100F5000A5CF882381F0843251F18C3269F19091D0
:100F60009F02992371F4833409F45FC0833589F1BA
:100F7000813451F1089589E180939F0210927102AA
:100F8000089520917102223039F1213099F797307C
:100F900009F440C0983071F790919E02E92FF0E07B
:100FA000E856FD4F80839F5F90939E0208951092B4
:100FB0009F0210927102089580919F028F5F80932B
:100FC0009F0210929E02089580917102833591F2E2
:100FD00082E0809371020895943089F0953048F54D
:100FE0009130B9F1923031F690919E02E92FF0E004
:100FF000EE58FD4F80839F5F90939E0208959091DD
:101000009E02E92FF0E0E458FD4F80839F5F9093AC
:101010009E02089590919E02E92FF0E0EE56FD4F5A
:1010200080839F5F90939E02089581E08093710278
:1010300008959730C9F0993009F09CCF90919E02A5
:10104000E92FF0E0E657FD4F80839F5F90939E026B
:10105000089590919E02E92FF0E0E751FD4F8083C3
:101060009F5F90939E02089590919E02E92FF0E079
:10107000E957FD4F80839F5F90939E020895629F82
:10108000D001739FF001829FE00DF11D649FE00D80
:10109000F11D929FF00D839FF00D749FF00D659FE1
:1010A000F00D9927729FB00DE11DF91F639FB00DE0
:1010B000E11DF91FBD01CF0111240895A1E21A2EEF
:1010C000AA1BBB1BFD010DC0AA1FBB1FEE1FFF1FEC
:1010D000A217B307E407F50720F0A21BB30BE40B3C
:1010E000F50B661F771F881F991F1A9469F7609583
:1010F0007095809590959B01AC01BD01CF0108953D
:10110000E199FECF9FBB8EBBE09A99278DB30895DE
:04111000F894FFCF81
:101114003A162E1E3E1E2E16062A12220222122ACB
:02112400E000E9
:00000001FF
